:100000000C94DF000C9407010C9407010C94070179
:100010000C9407010C9407010C9407010C94070140
:100020000C9407010C9407010C9407010C94070130
:100030000C9407010C9407010C9407010C94070120
:100040000C94F5030C9407010C9465040C943F0484
:100050000C9407010C9407010C9407010C94070100
:100060000C9407010C94070100407A10F35A00A089
:10007000724E18090010A5D4E80000E87648170071
:1000800000E40B54020000CA9A3B000000E1F505B1
:10009000000080969800000040420F000000A086FB
:1000A00001000000102700000000E803000000002D
:1000B0006400000000000A000000000001000000D1
:1000C00000002C76D888DC674F0823DFC1DFAE59EB
:1000D000E1B1B796E5E3E453C63AE651997696E87E
:1000E000E6C28426EB898C9B62ED407C6FFCEFBC02
:1000F0009C9F40F2BAA56FA5F490055A2AF75C932D
:100100006B6CF9676DC11BFCE0E40D47FEF520E662
:10011000B500D0ED902E0300943577050080841E45
:10012000080000204E0A000000C80C333333330FA0
:10013000986E12831141EF8D2114893BE65516CF3D
:10014000FEE6DB18D1844B381BF77C1D901DA4BB49
:10015000E424203284725E228100C9F124ECA1E5FE
:100160003D2700000000240027002A0000000000B6
:1001700023002600290000000000250028002B0095
:10018000040404040404040402020202020203033D
:100190000303030301020408102040800102040845
:1001A00010200102040810200000000800020100D5
:1001B000000304070000000000000000DB0711241A
:1001C0001FBECFEFD8E0DEBFCDBF22E0A0E5B1E09B
:1001D00001C01D92AA33B207E1F711E0A0E0B1E03F
:1001E000E4EFFDE102C005900D92A035B107D9F70B
:1001F00010E0CFEDD0E004C02197FE010E94F60C84
:10020000CE3DD107C9F70E94DC040C94F80E0C9483
:100210000000EBEAF1E09491E7E9F1E02491E3E8F2
:10022000F1E0E491EE2309F43CC0992339F19330D5
:1002300091F038F49130A9F0923001F594B59F7D9A
:1002400012C0973091F09830A1F09430B9F49091A9
:1002500080009F7D03C0909180009F7790938000E5
:100260000DC094B59F7794BD09C09091B0009F7761
:1002700003C09091B0009F7D9093B000F0E0EE0F2E
:10028000FF1FEA58FE4FA591B4919FB7F8948111D2
:1002900004C08C912095282302C0EC912E2B2C9326
:1002A0009FBF08953FB7F894809195019091960172
:1002B000A0919701B091980126B5A89B05C02F3F4A
:1002C00019F00196A11DB11D3FBFBA2FA92F982F7C
:1002D0008827820F911DA11DB11DBC01CD0142E0F7
:1002E000660F771F881F991F4A95D1F70895CF92FF
:1002F000DF92EF92FF920F931F93CF93DF936C01E6
:100300007A018B01C0E0D0E0CE15DF0581F0D80185
:100310006D918D01D601ED91FC910190F081E02D60
:10032000C6010995892B11F02196EECF7E01C701F8
:10033000DF91CF911F910F91FF90EF90DF90CF90C1
:100340000895089580E090E00895FC01538D448D58
:10035000252F30E0842F90E0821B930B541710F070
:10036000CF96089501970895FC01918D828D98177D
:1003700061F0828DDF01A80FB11D5D968C91928D89
:100380009F5F9F73928F90E008958FEF9FEF089586
:10039000FC01918D828D981731F0828DE80FF11D4F
:1003A000858D90E008958FEF9FEF0895FC01918D6A
:1003B000228D892F90E0805C9F4F821B91098F7363
:1003C0009927089589E991E00E94D60121E0892BBF
:1003D00009F420E0822F0895FC01848DDF01A80F2D
:1003E000B11DA35ABF4F2C91848D90E001968F735D
:1003F0009927848FA689B7892C93A089B1898C917C
:10040000837080648C93938D848D981306C00288CA
:10041000F389E02D80818F7D80830895EF92FF9294
:100420000F931F93CF93DF93EC0181E0888F9B8D17
:100430008C8D981305C0E889F989808185FD26C0D7
:10044000F62E0B8D10E00F5F1F4F0F731127E02E5C
:100450008C8DE8120CC00FB607FCFACFE889F98939
:10046000808185FFF5CFCE010E94EC01F1CF8B8D0D
:10047000FE01E80FF11DE35AFF4FF0829FB7F89499
:100480000B8FEA89FB89808180620AC09FB7F8944C
:10049000EE89FF896083E889F989808183708064AF
:1004A00080839FBF81E090E0DF91CF911F910F91FA
:1004B000FF90EF900895CF93DF93EC01888D882310
:1004C000C9F0EA89FB89808185FD05C0A889B989C1
:1004D0008C9186FD0FC00FB607FCF5CF808185FF9C
:1004E000F2CFA889B9898C9185FFEDCFCE010E940A
:1004F000EC01E7CFDF91CF91089580E090E0892B68
:1005000029F00E94E20181110C94000008950097E7
:1005100069F0FC0101900020E9F73197AF01481B19
:10052000590BBC0189E991E00C94770180E090E0DF
:1005300008952F923F924F925F926F927F928F9287
:100540009F92AF92BF92CF92DF92EF92FF920F9362
:100550001F93CF93DF93CDB7DEB7A4970FB6F89470
:10056000DEBF0FBECDBF4B015C01F42E9B01AC0181
:100570000E94CF0C882319F088E191E027C0240164
:100580003501E89477F82FEF3FEF4FE75FE7C301BE
:10059000B2010E94CF0C81110DC02FEF3FEF4FE74A
:1005A0005FE7C301B2010E945A0A18161CF48CE1DD
:1005B00091E00CC02FEF3FEF4FE75FE4C501B401BE
:1005C0000E94CA0C18162CF480E291E00E94870267
:1005D000B8C02FEF3FEF4FE75FECC501B4010E94B9
:1005E0005A0A87FDF1CF20E030E0A901C501B4012E
:1005F0000E945A0A87FF0BC06DE289E991E00E94D0
:100600000E023C01B7FAB094B7F8B09402C0612C66
:10061000712C10E060E070E080E09FE3F11641F0A3
:1006200020E030E040E251E40E94220C1F5FF6CF50
:10063000A50194010E94B60B4B015C010E949B0C2A
:100640006AA3C72ED82EE92E19A2262F372F482F9E
:10065000592F8E010F5D1F4F0BA31CA39AE0292E6B
:10066000312C412C512CCA01B901A20191010E94E7
:10067000D40C605DF80162938F01211531054105AD
:10068000510589F7CF010E9487028301080F191FC6
:10069000FF2009F455C06AA17C2D8D2D9E2D0E944E
:1006A0005F0A9B01AC01C501B4010E94B50B4B016F
:1006B0005C016EE289E991E00E940E02080F191FA9
:1006C0008AE0282E312C412C512C20E030E040E2F1
:1006D00051E4C501B4010E94C00A4B015C010E94B3
:1006E0009B0C9B0140E050E019A2CBA0DCA0762E31
:1006F0003AA3642EE52ECA01B901A20191010E941C
:10070000D40C605DF60162936F012115310541053E
:10071000510589F7CF010E948702080F191F672D25
:100720007AA1862D9E2D0E945F0A9B01AC01C50116
:10073000B4010E94B50B4B015C01FA94F110C5CFD6
:10074000C801A4960FB6F894DEBF0FBECDBFDF91EF
:10075000CF911F910F91FF90EF90DF90CF90BF90BE
:10076000AF909F908F907F906F905F904F903F9051
:100770002F900895CF93DF93EC01888199810097A2
:1007800011F00E94940D198218821D821C821B8216
:100790001A82DF91CF9108950E94E30E0F931F9369
:1007A000CF93DF93EC0188819981009729F02A810A
:1007B0003B812617370788F48B016F5F7F4F0E94BC
:1007C0001D0E009761F0998388831B830A832C8117
:1007D0003D81232B11F4FC01108281E001C080E0F7
:1007E000DF91CF911F910F9108951F920F920FB635
:1007F0000F9211242F933F938F939F93AF93BF93A7
:100800008091910190919201A0919301B0919401F6
:100810003091900123E0230F2D3720F40196A11D84
:10082000B11D05C026E8230F0296A11DB11D20931E
:1008300090018093910190939201A0939301B093C2
:1008400094018091950190919601A0919701B091AA
:1008500098010196A11DB11D809395019093960179
:10086000A0939701B0939801BF91AF919F918F9101
:100870003F912F910F900FBE0F901F9018951F92D0
:100880000F920FB60F9211242F933F934F935F93C4
:100890006F937F938F939F93AF93BF93EF93FF9348
:1008A00089E991E00E94EC01FF91EF91BF91AF9136
:1008B0009F918F917F916F915F914F913F912F9178
:1008C0000F900FBE0F901F9018951F920F920FB6AA
:1008D0000F9211242F938F939F93EF93FF93E091A7
:1008E000A901F091AA018081E091AF01F091B001DE
:1008F00082FD12C090818091B2018F5F8F73209131
:10090000B301821751F0E091B201F0E0E756FE4FDB
:10091000958F8093B20101C08081FF91EF919F91EB
:100920008F912F910F900FBE0F901F901895CF921F
:10093000DF92EF92FF920F931F93E82FF92F05C0DC
:10094000015011092109310961F190819623941711
:10095000B9F305C0015011092109310911F1908144
:1009600096239413F7CFC12CD12CE12CF12C0AC083
:100970008FEFC81AD80AE80AF80A0C151D052E05CB
:100980003F0579F080818623841791F36C2D7D2DAE
:100990008E2D9F2D1F910F91FF90EF90DF90CF90A4
:1009A000089560E070E080E090E01F910F91FF906B
:1009B000EF90DF90CF900895CF93DF93CDB7DEB760
:1009C000A9970FB6F894DEBF0FBECDBF789484B55B
:1009D000826084BD84B5816084BD85B5826085BD3B
:1009E00085B5816085BD80916E00816080936E00C9
:1009F00010928100809181008260809381008091BB
:100A0000810081608093810080918000816080936B
:100A100080008091B10084608093B1008091B0002B
:100A200081608093B00080917A00846080937A0026
:100A300080917A00826080937A0080917A00816050
:100A400080937A0080917A00806880937A00109277
:100A5000C100E6E9F1E02491E2E8F1E08491882325
:100A6000C9F090E0880F991FFC01EE59FE4F4591A7
:100A70005491FC01EA58FE4FA591B4919FB7F894A8
:100A8000FA0180812095822380838C91E22FE823D4
:100A9000EC939FBFE7E9F1E02491E3E8F1E0849172
:100AA000882399F090E0880F991FFC01EE59FE4FC2
:100AB000A591B491FC01EA58FE4F859194918FB7AE
:100AC000F894EC91E22BEC938FBFE091A901F091A7
:100AD000AA0182E08083E091A501F091A601108235
:100AE000E091A701F091A8018FEC80831092B101F1
:100AF000E091AD01F091AE0186E08083E091AB0121
:100B0000F091AC01808180618083E091AB01F09134
:100B1000AC01808188608083E091AB01F091AC01F1
:100B2000808180688083E091AB01F091AC0180818D
:100B30008F7D808352E8252E51E0352E80E00E9483
:100B4000090183E090E00197F1F781E00E9409013B
:100B50000E9452012B013C014AE0C42ED12CE12C11
:100B6000F12C0E945201DC01CB0184199509A609E0
:100B7000B709883E9340A105B10598F3F1E0CF1A7B
:100B8000D108E108F10828EE420E23E0521E611C54
:100B9000711CC114D104E104F10419F780E00E9432
:100BA0000901E6E9F1E06491F1018491E82FF0E0B8
:100BB000EE0FFF1FE459FE4F8591949100E412E47B
:100BC0002FE030E0462F0E949704611571058105E2
:100BD000910549F0DC01CB010196A11DB11DBC01BD
:100BE000CD019F7003C060E070E0CB010E945F0AFE
:100BF00026E933E44BE05DE30E94C00A20E030E0E8
:100C000040E05FE30E94C00A6B017C0120E030E01D
:100C100048EC52E40E945A0A87FF16C060916401B2
:100C20007091650180916601909167010E94940C1A
:100C3000660F771F660F771FFB01EC59FE4FC082CE
:100C4000D182E282F38215C06091640170916501E6
:100C500080916601909167010E94940C660F771F46
:100C6000660F771FFB01EC59FE4F10821182128232
:100C70001382C0906401D0906501E0906601F0900D
:100C8000670120E030E040E251E4C701B6010E9474
:100C90005A0A87FF22C020E030E040E85FE3C70146
:100CA000B6010E94B60B6093640170936501809356
:100CB000660190936701C0906001D0906101E0905F
:100CC0006201F090630188E691E099A788A7412C22
:100CD000512C320101E010E01FC080E090E0A0E85C
:100CE000BFE38093640190936501A0936601B09384
:100CF0006701E1CF0A30110551F420E030E040E215
:100D000051E4C301B2010E94220C6B017C010F5F10
:100D10001F4F0B301105D1F0A8A5B9A58D909D905E
:100D2000AD90BD90B9A7A8A720E030E0A901C5010A
:100D3000B4010E945A0A8823E9F2A5019401C30173
:100D4000B2010E94B60B2B013C01D4CFC0926001CE
:100D5000D0926101E0926201F092630120E030E004
:100D600040E85FE3609158017091590180915A0108
:100D700090915B010E945A0A811147C020915C0149
:100D800030915D0140915E0150915F01C701B60154
:100D90000E94B50B209154013091550140915601AC
:100DA000509157010E94B60B6B017C0120E030E0AE
:100DB00048EC52E40E94CA0C18166CF480E090E0F3
:100DC000A8ECB2E48093500190935101A09352019A
:100DD000B09353011AC020E030E0A901C701B60169
:100DE0000E945A0A87FD09C0C0925001D092510159
:100DF000E0925201F092530108C0109250011092FB
:100E00005101109252011092530160916001709152
:100E10006101809162019091630142E00E94990218
:100E200084E291E00E94870288E291E00E948702BA
:100E30006091500170915101809152019091530144
:100E400042E00E94990281E391E00E948702609152
:100E500058017091590180915A0190915B0142E0D3
:100E60000E94990280E491E00E94870284E6A82E05
:100E700081E0B82EE12CF12CB9E0EB16F1040CF076
:100E800078C0F50160817181828193811BA21AA2D1
:100E90001DA21CA21FA21EA28E010F5F1F4F22E0E7
:100EA00044E00E9408086C01009779F0FC01019071
:100EB0000020E9F731978F01081B190BB801CE010B
:100EC00082960E94CE03811105C0CE0182960E94B7
:100ED000BA0307C01FA30EA3B6018AA19BA10E945B
:100EE000F10E1A8219821C821B821E821D820AA1A7
:100EF0001BA101151105A9F0CEA0DFA0B601CE01FE
:100F000001960E94CE03811105C0CE0101960E9478
:100F1000BA0307C0DE82CD82B80189819A810E941E
:100F2000F10E0D811E810E5F1F4FB801CE0101969B
:100F30000E94CE038823D1F129813A818D819E813F
:100F400065E271E0820F931F0E94F10E1E830D83F4
:100F50004D815E8169817A8189E991E00E94770102
:100F600089819A810E94940D8AA19BA10E94940D6F
:100F70000FC060918C0170918D0180918E019091D4
:100F80008F0142E00E9499028CE491E00E94870266
:100F9000FFEFEF1AFF0A24E0A20EB11C8BE0E81667
:100FA000F10409F069CF0E947D02C8CDCE010196FF
:100FB0000E94BA03CDCFE9E9F1E01382128288EEF4
:100FC00093E0A0E0B0E084839583A683B7838AE0B2
:100FD00091E09183808385EC90E09587848784EC11
:100FE00090E09787868780EC90E0918B808B81ECF6
:100FF00090E0938B828B82EC90E0958B848B86ECD7
:1010000090E0978B868B118E128E138E148E08951E
:10101000EF920F931F93CF93DF93E80147FD02C038
:1010200034E001C034E1042E000C550B57FF03C01F
:10103000519541955109E32E022F242FAE010E94B4
:101040002808CE01DF91CF911F910F91EF90089565
:10105000A9E0B0E0EEE2F8E00C94840B6A01122FF4
:10106000B02E2BE3201720F0FF24F394F00E02C0E3
:101070002CE3F22E0F2D27E0AE014F5F5F4F0E9451
:101080008209BC014981842F8970813031F0E1FCF3
:1010900006C0E0FE06C090E205C09DE203C09BE2F0
:1010A00001C090E05E2D507143FF3CC0911102C021
:1010B00083E001C084E0811718F4212F281B01C0B0
:1010C00020E051110BC0F601822F30E2882319F085
:1010D00031938150FBCFC20ED11C20E0992329F01F
:1010E000D6019C93F60131966F01C6010396E2FE8C
:1010F0000AC03EE4D6013C9341E411964C9311970B
:1011000012963C9306C03EE6F601308341E64183E9
:101110003283FC01322F40E2332309F442C0419371
:101120003150FACF42FF44C0911102C083E001C0A8
:1011300084E0811718F4212F281B01C020E05111F1
:101140000BC0F601822F30E2882319F031938150D1
:10115000FBCFC20ED11C20E0992329F0D6019C932D
:10116000F60131966F01C6010396E2FE0BC039E429
:10117000D6013C933EE411963C93119736E41296C7
:101180003C9307C039E6F60130833EE6318336E60C
:101190003283FC01322F40E2332319F04193315066
:1011A000FBCFFC01E20FF11D10828EEF9FEFA6C076
:1011B00021E030E0911102C020E030E01616170661
:1011C0001CF4FB01319602C0E1E0F0E02E0F3F1F5E
:1011D000BB2021F0EB2DF0E0319602C0E0E0F0E022
:1011E0002E0F3F1FE12FF0E02E173F071CF4121BBC
:1011F000212F01C020E08E2D887159F4F601822F35
:1012000030E2882319F031938150FBCFC20ED11CFC
:1012100020E0992329F0D6019C93F60131966F01C5
:1012200051110BC0F601822F90E3882319F091939E
:101230008150FBCFC20ED11C20E00F2D060F9A81EA
:10124000342F307144FF03C0913309F4015010165C
:1012500024F4093018F008E001C001E0AB0177FF89
:1012600002C040E050E0FB01E41BF50BA1E0B0E060
:10127000AC0FBD1FEA0FFB1F8EE2A82E4B01801A98
:1012800091080B2D10E01195019511094F3FBFEF0B
:101290005B0721F4D601AC9211966D0164177507B6
:1012A0002CF08416950614F4818101C080E341502E
:1012B00051093196D60111967D014017510724F04E
:1012C000D6018C936701E2CF6417750739F4963322
:1012D00020F4953319F4311101C081E3F6018083C4
:1012E000F701822F90E2882319F091938150FBCF70
:1012F000F701E20FF11D108280E090E02996ECE00A
:101300000C94A00B283008F027E03327DA01990F5E
:10131000311D87FD916000966105710539F43260D9
:101320002E5F3D9330E32A95E1F708959F3F30F01B
:1013300080387105610509F03C5F3C5F3D93913059
:1013400008F08068911DDF93CF931F930F93FF9256
:10135000EF92192F987F9695E92F96959695E90F1C
:10136000FF27EE53FF4F99273327EE24FF24A701D1
:10137000E70105900894079428F4360FE71EF81E3D
:10138000491F511D660F771F881F991F0694A1F7EB
:101390000590079428F4E70EF81E491F561FC11D3B
:1013A000770F881F991F661F0694A1F70590079471
:1013B00028F4F80E491F561FC71FD11D880F991F0B
:1013C000661F771F0694A1F70590079420F4490F34
:1013D000561FC71FD81F990F661F771F881F0694B7
:1013E000A9F784911095177041F0D695C795579538
:1013F0004795F794E7941A95C1F7E8E6F0E068940A
:101400001590159135916591959105907FE27395B1
:10141000E118F10A430B560BC90BD009C0F7E10CD8
:10142000F11E431F561FC91FD01D7EF4703311F4E7
:101430008A95E6CFE894015030F0080F0AF40027AF
:10144000021708F4202F2395022F7A3328F079E32E
:101450007D932A95E9F710C07D932A9589F6069425
:1014600097956795379517951794E118F10A430BEF
:10147000560BC90BD00998F023957E9173957A335A
:1014800008F070E37C932013B8F77E9170617D9330
:1014900030F0839571E37D9370E32A95E1F7112491
:1014A000EF90FF900F911F91CF91DF91992787FDCA
:1014B000909508950E949C0A08F481E00895E894AC
:1014C00009C097FB3EF490958095709561957F4F8C
:1014D0008F4F9F4F9923A9F0F92F96E9BB2793953A
:1014E000F695879577956795B795F111F8CFFAF44A
:1014F000BB0F11F460FF1BC06F5F7F4F8F4F9F4F7B
:1015000016C0882311F096E911C0772321F09EE8D8
:10151000872F762F05C0662371F096E8862F70E03E
:1015200060E02AF09A95660F771F881FDAF7880F18
:101530009695879597F90895990F0008550FAA0B6E
:10154000E0E8FEEF16161706E807F907C0F01216D6
:101550001306E407F50798F0621B730B840B950BD9
:1015600039F40A2661F0232B242B252B21F408952E
:101570000A2609F4A140A6958FEF811D811D0895CB
:101580000E94D30A0C94440B0E94360B38F00E9440
:101590003D0B20F0952311F00C942D0B0C94330B84
:1015A00011240C94780B0E94550B70F3959FC1F396
:1015B000950F50E0551F629FF001729FBB27F00D01
:1015C000B11D639FAA27F00DB11DAA1F649F662756
:1015D000B00DA11D661F829F2227B00DA11D621FA5
:1015E000739FB00DA11D621F839FA00D611D221F5F
:1015F000749F3327A00D611D231F849F600D211D43
:10160000822F762F6A2F11249F5750409AF0F1F0C5
:1016100088234AF0EE0FFF1FBB1F661F771F881F2E
:1016200091505040A9F79E3F510580F00C942D0B2E
:101630000C94780B5F3FE4F3983ED4F3869577954E
:101640006795B795F795E7959F5FC1F7FE2B880FD4
:10165000911D9695879597F9089597F99F6780E86A
:1016600070E060E008959FEF80EC089500240A94F4
:101670001616170618060906089500240A9412166D
:101680001306140605060895092E0394000C11F4A0
:10169000882352F0BB0F40F4BF2B11F460FF04C04D
:1016A0006F5F7F4F8F4F9F4F089557FD9058440FA6
:1016B000551F59F05F3F71F04795880F97FB991FB1
:1016C00061F09F3F79F0879508951216130614066E
:1016D000551FF2CF4695F1DF08C0161617061806FB
:1016E000991FF1CF86957105610508940895E894D6
:1016F000BB2766277727CB0197F908952F923F9252
:101700004F925F926F927F928F929F92AF92BF9211
:10171000CF92DF92EF92FF920F931F93CF93DF93BD
:10172000CDB7DEB7CA1BDB0B0FB6F894DEBF0FBE1A
:10173000CDBF09942A88398848885F846E847D8467
:101740008C849B84AA84B984C884DF80EE80FD8069
:101750000C811B81AA81B981CE0FD11D0FB6F894DF
:10176000DEBF0FBECDBFED0108955058BB27AA279D
:101770000E94CD0B0C94440B0E94360B38F00E9453
:101780003D0B20F039F49F3F19F426F40C94330BF1
:101790000EF4E095E7FB0C942D0BE92F0E94550BFE
:1017A00058F3BA17620773078407950720F079F496
:1017B000A6F50C94770B0EF4E0950B2EBA2FA02D06
:1017C0000B01B90190010C01CA01A0011124FF27EE
:1017D000591B99F0593F50F4503E68F11A16F040E9
:1017E000A22F232F342F4427585FF3CF46953795E8
:1017F0002795A795F0405395C9F77EF41F16BA0BAD
:10180000620B730B840BBAF09150A1F0FF0FBB1F5A
:10181000661F771F881FC2F70EC0BA0F621F731FA3
:10182000841F48F4879577956795B795F7959E3F00
:1018300008F0B0CF9395880F08F09927EE0F979591
:10184000879508950E94360C0C94440B0E943D0B22
:1018500058F00E94360B40F029F45F3F29F00C94B9
:101860002D0B51110C94780B0C94330B0E94550BDB
:1018700068F39923B1F3552391F3951B550BBB27BF
:10188000AA2762177307840738F09F5F5F4F220F04
:10189000331F441FAA1FA9F335D00E2E3AF0E0E8FB
:1018A00032D091505040E695001CCAF72BD0FE2F45
:1018B00029D0660F771F881FBB1F261737074807D9
:1018C000AB07B0E809F0BB0B802DBF01FF27935891
:1018D0005F4F3AF09E3F510578F00C942D0B0C941D
:1018E000780B5F3FE4F3983ED4F386957795679540
:1018F000B795F7959F5FC9F7880F911D96958795C6
:1019000097F90895E1E0660F771F881FBB1F6217E4
:1019100073078407BA0720F0621B730B840BBA0BA2
:10192000EE1F88F7E09508950E949B0C6894B11112
:101930000C94780B08950E945D0B88F09F5798F0E7
:10194000B92F9927B751B0F0E1F0660F771F881FC4
:10195000991F1AF0BA95C9F714C0B13091F00E94DE
:10196000770BB1E008950C94770B672F782F8827B9
:10197000B85F39F0B93FCCF3869577956795B39505
:10198000D9F73EF490958095709561957F4F8F4F74
:101990009F4F08950E949C0A08F48FEF08950E94BB
:1019A0009C0A880B990B0895A1E21A2EAA1BBB1B57
:1019B000FD010DC0AA1FBB1FEE1FFF1FA217B3071B
:1019C000E407F50720F0A21BB30BE40BF50B661F31
:1019D000771F881F991F1A9469F7609570958095F5
:1019E00090959B01AC01BD01CF010895EE0FFF1F43
:1019F0000590F491E02D09940F931F93CF93DF93FB
:101A00008230910510F482E090E0E0913802F0918C
:101A1000390220E030E0A0E0B0E0309719F14081D9
:101A200051810281138148175907C8F0841795071F
:101A300069F4109731F012960C93129713961C9339
:101A400027C0009338021093390222C021153105B6
:101A500019F04217530718F49A01BD01EF01DF0195
:101A6000F801DBCF21153105F9F0281B390B2430A3
:101A7000310580F48A819B816115710521F0FB019C
:101A80009383828304C09093390280933802FE01CD
:101A9000329644C0FE01E20FF31F819391932250CE
:101AA0003109398328833AC02091360230913702B8
:101AB000232B41F42091020130910301309337022E
:101AC000209336022091000130910101211531054A
:101AD00041F42DB73EB74091040150910501241BFC
:101AE000350BE0913602F0913702E217F307A0F4CC
:101AF0002E1B3F0B2817390778F0AC014E5F5F4F64
:101B00002417350748F04E0F5F1F5093370240935C
:101B100036028193919302C0E0E0F0E0CF01DF91C3
:101B2000CF911F910F910895CF93DF93009709F400
:101B300081C0FC01329713821282A0913802B091C9
:101B40003902109781F420813181820F931F2091F7
:101B50003602309137022817390751F5F0933702D2
:101B6000E093360267C0ED0120E030E0CE17DF07DA
:101B700040F44A815B819E0141155105F1F0EA0173
:101B8000F5CFD383C28340815181840F951FC8173D
:101B9000D90759F488819981840F951F0296918302
:101BA00080838A819B81938382832115310529F467
:101BB000F0933902E09338023DC0E901FB83EA83E8
:101BC00049915991C40FD51FEC17FD0761F480812D
:101BD0009181840F951F0296E90199838883828100
:101BE00093819B838A83E0E0F0E012968D919C9133
:101BF0001397009719F0FD01DC01F7CF8D919C91AF
:101C000011979D012E5F3F4F820F931F2091360247
:101C1000309137022817390769F4309729F4109268
:101C200039021092380202C013821282B093370236
:101C3000A0933602DF91CF910895A0E0B0E0E3E2F7
:101C4000FEE00C94820BEC01009721F4CB010E9482
:101C5000FC0CB4C0FC01E60FF71F9C0122503109B7
:101C6000E217F30708F4A8C0D9010D911C91119750
:101C700006171707B0F00530110508F49BC0C8011E
:101C800004978617970708F495C002501109061BA0
:101C9000170B019311936D937C93CF010E94940DC8
:101CA00089C05B01A01AB10A4C01800E911EA0915F
:101CB0003802B0913902612C712CE12CF12C109773
:101CC00009F446C08D919C911197A815B905B1F5FD
:101CD0006C0142E0C40ED11CCA14DB0478F14C0143
:101CE0008A189B08640142E0C40ED11C1296BC9075
:101CF00012971396AC91B5E0CB16D10440F0B282A6
:101D0000A38391828082D9016D937C9309C00E5F79
:101D10001F4F800F911FF90191838083EB2DFA2FC4
:101D2000E114F10431F0D7011396FC93EE9312976E
:101D300041C0F0933902E09338023CC0681679063E
:101D400008F43C017D0112960D90BC91A02DB7CFF7
:101D5000809136029091370288169906E1F4661652
:101D60007706C8F48091000190910101009741F439
:101D70008DB79EB74091040150910501841B950BCE
:101D8000E817F907C8F4F0933702E0933602F90137
:101D9000718360830FC0CB010E94FC0C7C01009713
:101DA00059F0A801BE010E94E80ECE010E94940DD8
:101DB000C70104C0CE0102C080E090E0CDB7DEB71D
:101DC000EEE00C949E0B81E090E0F8940C94F80EF9
:101DD000FB01DC0102C001900D9241505040D8F748
:101DE0000895FB01DC0101900D920020E1F70895B8
:041DF000F894FFCF95
:101DF40000003A028000000000000E027701A501F5
:101E04005B02D601B401C8016E616E00696E6600A2
:101E14006F76660020202000766F6C756D653A2021
:101E240000202068616E64696E736964653A2000FD
:101E34002020766572646965723A20000D0A0000FC
:00000001FF
